:100000000C9434000C9449000C9449000C94490061
:100010000C9449000C9449000C9449000C9449003C
:100020000C9449000C9449000C9449000C9449002C
:100030000C9449000C9449000C9449000C9449001C
:100040000C9449000C9449000C9449000C9449000C
:100050000C9449000C9449000C9449000C944900FC
:100060000C9449000C94490011241FBECFEFD8E036
:10007000DEBFCDBF11E0A0E0B1E0E4E6FAE002C0EF
:1000800005900D92A233B107D9F70E9474010C9428
:1000900030050C94000024E031E0FC013183208322
:1000A00062831092B90080E28093B8001092BA0087
:1000B00084E48093BC000895403521F484EC80935F
:1000C000BC000BC0483521F484E88093BC0005C017
:1000D0006093BB0084E88093BC00ECEBF0E080818F
:1000E0008823ECF7403561F48091B900887F803532
:1000F00081F409C08091B900887F883551F406C029
:10010000483539F4F7CF8091BB0008958091BB004A
:1001100008959091B900987F81E0491380E0089597
:10012000CF92DF92EF92FF920F931F93CF93DF93C3
:100130007C01D62F6A01C22F84EA8093BC00ECEBCD
:10014000F0E090819923ECF78091B90048E1F70144
:100150006281C7010E945C0048E26D2FC7010E94C6
:100160005C000FEF0C0FCC2371F0E60110E00F5F85
:100170001F4F0C0D1D1D699148E2C7010E945C00D4
:10018000C017D107C1F7ECEBF0E080818823ECF7D2
:1001900084E98093BC0081E0DF91CF911F910F91A2
:1001A000FF90EF90DF90CF900895CF92DF92EF9283
:1001B000FF920F931F93CF93DF938C01D62F7A0179
:1001C000C22F84EA8093BC00ECEBF0E0908199238D
:1001D000ECF78091B90048E1F8016281C8010E9402
:1001E0005C0048E26D2FC8010E945C0084EA8093A5
:1001F000BC00ECEBF0E090819923ECF78091B90022
:10020000F8016281616040E4C8010E945C008EEFE9
:100210008C0FC13079F0E70190E00196E80EF91EED
:10022000670140E56FEFC8010E945C008993CC151F
:10023000DD05B9F748E56FEFC8010E945C00F701E2
:100240008083ECEBF0E080818823ECF784E98093F5
:10025000BC0081E0DF91CF911F910F91FF90EF9053
:10026000DF90CF900895CF93DF939FEF920F2223DB
:1002700069F0A42FB52FE0ECF0E0C6ECD0E080816F
:1002800085FFFDCF8D9188839150C8F781E0DF9184
:10029000CF910895CF93DF939FEF920F222369F0C0
:1002A000A42FB52FE0ECF0E0C6ECD0E080818823ED
:1002B000ECF788818D939150C8F781E0DF91CF9161
:1002C00008952CE031E0FC01318320831092C000BE
:1002D00088E18093C10086E08093C2001092C5003F
:1002E0008CE08093C4000895CF93DF93CDB7DEB741
:1002F0006A970FB6F894DEBF0FBECDBFE1E6F0E01F
:1003000080E8808381E08083CE0149960E9461016C
:100310002FEF89E698E1215080409040E1F700C03E
:100320000000CE0141960E9421021E8A80E58F8B3B
:1003300085E1888F0F2EF0E1EF2EF1E0FF2EF02DFA
:100340008E010F5F1F4F2FEF89E698E1215080400B
:100350009040E1F700C00000E989FA890284F38542
:10036000E02DBE016A5E7F4FCE01419609958E89D0
:100370001F928F938F891F928F93888D1F928F93D7
:10038000FF92EF921F930F930E945802282FA8010B
:1003900060E0CE0149960E9433010FB6F894DEBFAB
:1003A0000FBECDBFD0CFAB01DC01ED91FC91019030
:1003B000F081E02D23E060E009950895AB01DC01B8
:1003C000ED91FC910190F081E02D24E063E009952E
:1003D0000895AB01DC01ED91FC910280F381E02DE9
:1003E00023E060E009950895AB01DC01ED91FC91FB
:1003F0000280F381E02D24E063E0099508950296E0
:100400000E94900081E00895CF93DF9300D0CDB794
:10041000DEB722E0AE014F5F5F4F60EE02960E94B2
:10042000D5009A81892F807194FD03C095FF03C088
:1004300003C080E801C080E80F900F90DF91CF915A
:100440000895EF92FF920F931F93CF93DF9300D005
:10045000CDB7DEB7E82EF92E082F192F84E291E0F0
:10046000F801819391938F0164E6CF010E944B00C4
:100470008E2D9F2D0E940402803861F483E28983CF
:1004800080E28A8322E0AE014F5F5F4F60EEC801D9
:100490000E9490000F900F90DF91CF911F910F91CC
:1004A000FF90EF90089502960E94D50081E0089594
:1004B000AEE0B0E0EEE5F2E00C9407050D891E8990
:1004C0008EE08C831A8309838FEF9FE79E838D8351
:1004D000AE01475E5F4F6F89788DCE0101960E9415
:1004E0007B022F813885F801E20FF31F10822E96D0
:1004F000E4E00C942305ACE0B0E0E1E8F2E00C9419
:10050000F9047C016B018A01FC0117821682838148
:1005100081FFBDC1CE0101964C01F7019381F60127
:1005200093FD859193FF81916F01882309F4ABC1FD
:10053000853239F493FD859193FF81916F01853266
:1005400029F4B70190E00E946304E7CF512C312CCD
:1005500020E02032A0F48B3269F030F4803259F080
:10056000833269F420612CC08D3239F0803339F444
:10057000216026C02260246023C0286021C027FD9E
:1005800027C030ED380F3A3078F426FF06C0FAE085
:100590005F9E300D1124532E13C08AE0389E300D1B
:1005A0001124332E20620CC08E3221F426FD6BC143
:1005B000206406C08C3611F4206802C0883641F4ED
:1005C000F60193FD859193FF81916F018111C1CF58
:1005D000982F9F7D9554933028F40C5F1F4FFFE3B5
:1005E000F9830DC0833631F0833771F0833509F01C
:1005F0005BC022C0F801808189830E5F1F4F4424B5
:100600004394512C540115C03801F2E06F0E711C57
:10061000F801A080B18026FF03C0652D70E002C004
:100620006FEF7FEFC5012C870E9458042C018301D6
:100630002C852F77222E17C03801F2E06F0E711C27
:10064000F801A080B18026FF03C0652D70E002C0D4
:100650006FEF7FEFC5012C870E944D042C012C8584
:100660002068222E830123FC1BC0832D90E04816B6
:100670005906B0F4B70180E290E00E9463043A9416
:10068000F4CFF50127FC859127FE81915F01B70129
:1006900090E00E94630431103A94F1E04F1A51083F
:1006A0004114510471F7E5C0843611F0893639F5EB
:1006B000F80127FF07C060817181828193810C5FFF
:1006C0001F4F08C060817181072E000C880B990BA9
:1006D0000E5F1F4F2F76722E97FF09C09095809561
:1006E000709561957F4F8F4F9F4F2068722E2AE043
:1006F00030E0A4010E949B04A82EA81844C08537AE
:1007000029F42F7EB22E2AE030E025C0F22FF97FA7
:10071000BF2E8F36C1F018F4883579F0B4C0803719
:1007200019F0883721F0AFC02F2F2061B22EB4FE10
:100730000DC08B2D8460B82E09C024FF0AC09F2FE6
:100740009660B92E06C028E030E005C020E130E018
:1007500002C020E132E0F801B7FE07C0608171817C
:10076000828193810C5F1F4F06C06081718180E0A0
:1007700090E00E5F1F4FA4010E949B04A82EA818B2
:10078000FB2DFF777F2E76FE0BC0372D3E7FA51405
:1007900050F474FE0AC072FC08C0372D3E7E05C0BE
:1007A000BA2C372D03C0BA2C01C0B52C34FF0DC0B4
:1007B000FE01EA0DF11D8081803311F4397E09C0FC
:1007C00032FF06C0B394B39404C0832F867809F037
:1007D000B39433FD13C030FF06C05A2CB31418F481
:1007E000530C5B18B32CB31468F4B70180E290E0AB
:1007F0003C870E946304B3943C85F5CFB31410F496
:100800003B1801C0312C34FF12C0B70180E390E0E7
:100810003C870E9463043C8532FF17C031FD03C052
:1008200088E790E002C088E590E0B7010CC0832F14
:10083000867859F031FF02C08BE201C080E237FDBB
:100840008DE2B70190E00E946304A51438F4B7016B
:1008500080E390E00E9463045A94F7CFAA94F401D5
:10086000EA0DF11D8081B70190E00E946304A110A0
:10087000F5CF332009F451CEB70180E290E00E9419
:1008800063043A94F6CFF7018681978102C08FEF17
:100890009FEF2C96E2E10C941505FC010590615048
:1008A00070400110D8F7809590958E0F9F1F089586
:1008B000FC016150704001900110D8F7809590952F
:1008C0008E0F9F1F08950F931F93CF93DF93FB010C
:1008D000238121FD03C08FEF9FEF28C022FF16C0A8
:1008E00046815781248135814217530744F4A08102
:1008F000B1819D012F5F3F4F318320838C932681EF
:1009000037812F5F3F4F3783268310C0EB01092FBC
:10091000182F0084F185E02D0995892BE1F68E8151
:100920009F8101969F838E83812F902FDF91CF919E
:100930001F910F910895FA01AA27283051F1203113
:1009400081F1E8946F936E7F6E5F7F4F8F4F9F4F63
:10095000AF4FB1E03ED0B4E03CD0670F781F891FA5
:100960009A1FA11D680F791F8A1F911DA11D6A0F73
:10097000711D811D911DA11D20D009F468943F9126
:100980002AE0269F11243019305D3193DEF6CF0125
:100990000895462F4770405D4193B3E00FD0C9F7EB
:1009A000F6CF462F4F70405D4A3318F0495D31FD58
:1009B0004052419302D0A9F7EACFB4E0A6959795AB
:1009C000879577956795BA95C9F700976105710581
:1009D00008959B01AC010A2E0694579547953795CB
:1009E0002795BA95C9F7620F731F841F951FA01D25
:1009F00008952F923F924F925F926F927F928F92C3
:100A00009F92AF92BF92CF92DF92EF92FF920F939D
:100A10001F93CF93DF93CDB7DEB7CA1BDB0B0FB6A7
:100A2000F894DEBF0FBECDBF09942A883988488864
:100A30005F846E847D848C849B84AA84B984C884FA
:100A4000DF80EE80FD800C811B81AA81B981CE0FF1
:100A5000D11D0FB6F894DEBF0FBECDBFED010895D6
:040A6000F894FFCF38
:100A6400000000009000D5000000000033014A019E
:100A740054494D453A25583A25583A25580D0A0007
:100A840000000000FF0153020402D301DE01E9016A
:020A9400F4016B
:00000001FF
