S01000005254435F546573742E737265632C
S11300000C9434000C9449000C9449000C9449005D
S11300100C9449000C9449000C9449000C94490038
S11300200C9449000C9449000C9449000C94490028
S11300300C9449000C9449000C9449000C94490018
S11300400C9449000C9449000C9449000C94490008
S11300500C9449000C9449000C9449000C944900F8
S11300600C9449000C94490011241FBECFEFD8E032
S1130070DEBFCDBF11E0A0E0B1E0ECEAF3E002C0E6
S113008005900D92A032B107D9F70E9469010C9432
S1130090D4010C94000084EA8093BC008091BC00DD
S11300A087FFFCCF9091B900987F81E0983009F0E8
S11300B080E0089524E031E0FC01318320836283F1
S11300C01092B90080E28093B8001092BA0084E4E0
S11300D08093BC000895403511F484EC05C0483584
S11300E011F06093BB0084E88093BC008091BC0055
S11300F087FFFCCF403531F48091B900887F80358B
S113010059F407C0483541F48091B900887F883597
S113011019F48091BB0008959091B900987F81E013
S1130120941380E00895CF92DF92EF92FF921F9391
S1130130CF93DF9300D0CDB7DEB77C01D62E142F3A
S113014029835A830E944B0048E1F7016281C70169
S11301500E946B0048E26D2DC7010E946B00C12E06
S11301605A81D52E2981120F1C1541F0F601619197
S11301706F0148E2C7010E946B00F6CF8091BC007A
S113018087FFFCCF84E98093BC0081E00F900F903F
S1130190DF91CF911F91FF90EF90DF90CF90089562
S11301A0CF92DF92EF92FF920F931F93CF93DF933F
S11301B0EC01E62E8A01F22E0E944B0048E16A818E
S11301C0CE010E946B0048E26E2DCE010E946B00AE
S11301D084EA8093BC008091BC0087FFFCCF8091AF
S11301E0B9006A81616040E4CE010E946B00FA9418
S11301F06801EF2CEE2051F040E56FEFCE010E9434
S11302006B00F60181936F01EA94F4CF0F0D111D79
S113021048E56FEFCE010E946B00F8018083809166
S1130220BC0087FFFCCF84E98093BC0081E0DF91B0
S1130230CF911F910F91FF90EF90DF90CF90089591
S1130240FA01215040F08091C00085FFFCCF8191DC
S11302508093C600F6CF81E00895FA01215040F062
S11302608091C00087FFFCCF8091C6008193F6CFB8
S113027081E008952CE031E0FC0131832083109269
S1130280C00088E18093C10086E08093C200109290
S1130290C5008CE08093C4000895DC0112968D9112
S11302A09C911397DC01ED91FC910190F081E02D7C
S11302B0099581E00895DC0112968D919C91139724
S11302C0DC01ED91FC910280F381E02D099581E040
S11302D00895CF93DF93CDB7DEB7A0970FB6F89408
S11302E0DEBF0FBECDBF80E88093610081E08093C4
S11302F06100CE014F960E943A01CE0148969F8B31
S11303008E8B24E131E03D8B2C8B60ED0E945A00F2
S11303108CE191E09D8B8C8B8CE2E82E9DE0F92E94
S11303200AE02FEF83ED90E3215080409040E1F705
S113033000C0000023E1AE014F5F5F4F60E0CE01DB
S113034044960E945B0113E1115010F1E1E0F0E0EA
S1130350EC0FFD1FE10FF11D8081982F92959F7086
S11303608F709A3010F0995C01C0905D9B8F8A3039
S113037010F0895C01C0805D8C8FED8E23E0AE01AE
S1130380455E5F4F60E0CE014F960E942001DCCFB6
S1130390FB8E0C8F22E0AE01455E5F4F60E0CE0124
S10F03A04F960E942001BDCFF894FFCFBF
S11303AC000000009300D0000000000020012D018B
S11303BC000000004D015B01000000004D015B01D9
S9030000FC
